{
	"data": {
		"bytecode": {
			"linkReferences": {
				"contracts/interface.sol": {
					"Set": [
						{
							"length": 20,
							"start": 207
						}
					]
				}
			},
			"object": "608060405234801561000f575f80fd5b5061057a8061001d5f395ff3fe608060405234801561000f575f80fd5b506004361061003f575f3560e01c806371dd626b14610043578063ba19322d14610061578063bb29998e1461007f575b5f80fd5b61004b6100af565b60405161005891906101de565b60405180910390f35b610069610120565b6040516100769190610231565b60405180910390f35b610099600480360381019061009491906102b5565b610147565b6040516100a6919061036a565b60405180910390f35b5f73__$ee6d130121fe2785afce872595784b0be1$__63f8a8fd6d6040518163ffffffff1660e01b8152600401602060405180830381865af41580156100f7573d5f803e3d5ffd5b505050506040513d601f19601f8201168201806040525081019061011b91906103b4565b905090565b5f7f340a2a4e00000000000000000000000000000000000000000000000000000000905090565b60605f8290508073ffffffffffffffffffffffffffffffffffffffff1663340a2a4e6040518163ffffffff1660e01b81526004015f604051808303815f875af1158015610196573d5f803e3d5ffd5b505050506040513d5f823e3d601f19601f820116820180604052508101906101be91906104fd565b915050919050565b5f819050919050565b6101d8816101c6565b82525050565b5f6020820190506101f15f8301846101cf565b92915050565b5f7fffffffff0000000000000000000000000000000000000000000000000000000082169050919050565b61022b816101f7565b82525050565b5f6020820190506102445f830184610222565b92915050565b5f604051905090565b5f80fd5b5f80fd5b5f73ffffffffffffffffffffffffffffffffffffffff82169050919050565b5f6102848261025b565b9050919050565b6102948161027a565b811461029e575f80fd5b50565b5f813590506102af8161028b565b92915050565b5f602082840312156102ca576102c9610253565b5b5f6102d7848285016102a1565b91505092915050565b5f81519050919050565b5f82825260208201905092915050565b5f5b838110156103175780820151818401526020810190506102fc565b5f8484015250505050565b5f601f19601f8301169050919050565b5f61033c826102e0565b61034681856102ea565b93506103568185602086016102fa565b61035f81610322565b840191505092915050565b5f6020820190508181035f8301526103828184610332565b905092915050565b610393816101c6565b811461039d575f80fd5b50565b5f815190506103ae8161038a565b92915050565b5f602082840312156103c9576103c8610253565b5b5f6103d6848285016103a0565b91505092915050565b5f80fd5b5f80fd5b7f4e487b71000000000000000000000000000000000000000000000000000000005f52604160045260245ffd5b61041d82610322565b810181811067ffffffffffffffff8211171561043c5761043b6103e7565b5b80604052505050565b5f61044e61024a565b905061045a8282610414565b919050565b5f67ffffffffffffffff821115610479576104786103e7565b5b61048282610322565b9050602081019050919050565b5f6104a161049c8461045f565b610445565b9050828152602081018484840111156104bd576104bc6103e3565b5b6104c88482856102fa565b509392505050565b5f82601f8301126104e4576104e36103df565b5b81516104f484826020860161048f565b91505092915050565b5f6020828403121561051257610511610253565b5b5f82015167ffffffffffffffff81111561052f5761052e610257565b5b61053b848285016104d0565b9150509291505056fea2646970667358221220095bf0d4e5d2a7ef2505694fa68ed12330e718c33ff0060321b731ac01f74db864736f6c63430008160033",
			"opcodes": "PUSH1 0x80 PUSH1 0x40 MSTORE CALLVALUE DUP1 ISZERO PUSH2 0xF JUMPI PUSH0 DUP1 REVERT JUMPDEST POP PUSH2 0x57A DUP1 PUSH2 0x1D PUSH0 CODECOPY PUSH0 RETURN INVALID PUSH1 0x80 PUSH1 0x40 MSTORE CALLVALUE DUP1 ISZERO PUSH2 0xF JUMPI PUSH0 DUP1 REVERT JUMPDEST POP PUSH1 0x4 CALLDATASIZE LT PUSH2 0x3F JUMPI PUSH0 CALLDATALOAD PUSH1 0xE0 SHR DUP1 PUSH4 0x71DD626B EQ PUSH2 0x43 JUMPI DUP1 PUSH4 0xBA19322D EQ PUSH2 0x61 JUMPI DUP1 PUSH4 0xBB29998E EQ PUSH2 0x7F JUMPI JUMPDEST PUSH0 DUP1 REVERT JUMPDEST PUSH2 0x4B PUSH2 0xAF JUMP JUMPDEST PUSH1 0x40 MLOAD PUSH2 0x58 SWAP2 SWAP1 PUSH2 0x1DE JUMP JUMPDEST PUSH1 0x40 MLOAD DUP1 SWAP2 SUB SWAP1 RETURN JUMPDEST PUSH2 0x69 PUSH2 0x120 JUMP JUMPDEST PUSH1 0x40 MLOAD PUSH2 0x76 SWAP2 SWAP1 PUSH2 0x231 JUMP JUMPDEST PUSH1 0x40 MLOAD DUP1 SWAP2 SUB SWAP1 RETURN JUMPDEST PUSH2 0x99 PUSH1 0x4 DUP1 CALLDATASIZE SUB DUP2 ADD SWAP1 PUSH2 0x94 SWAP2 SWAP1 PUSH2 0x2B5 JUMP JUMPDEST PUSH2 0x147 JUMP JUMPDEST PUSH1 0x40 MLOAD PUSH2 0xA6 SWAP2 SWAP1 PUSH2 0x36A JUMP JUMPDEST PUSH1 0x40 MLOAD DUP1 SWAP2 SUB SWAP1 RETURN JUMPDEST PUSH0 PUSH20 0x0 PUSH4 0xF8A8FD6D PUSH1 0x40 MLOAD DUP2 PUSH4 0xFFFFFFFF AND PUSH1 0xE0 SHL DUP2 MSTORE PUSH1 0x4 ADD PUSH1 0x20 PUSH1 0x40 MLOAD DUP1 DUP4 SUB DUP2 DUP7 GAS DELEGATECALL ISZERO DUP1 ISZERO PUSH2 0xF7 JUMPI RETURNDATASIZE PUSH0 DUP1 RETURNDATACOPY RETURNDATASIZE PUSH0 REVERT JUMPDEST POP POP POP POP PUSH1 0x40 MLOAD RETURNDATASIZE PUSH1 0x1F NOT PUSH1 0x1F DUP3 ADD AND DUP3 ADD DUP1 PUSH1 0x40 MSTORE POP DUP2 ADD SWAP1 PUSH2 0x11B SWAP2 SWAP1 PUSH2 0x3B4 JUMP JUMPDEST SWAP1 POP SWAP1 JUMP JUMPDEST PUSH0 PUSH32 0x340A2A4E00000000000000000000000000000000000000000000000000000000 SWAP1 POP SWAP1 JUMP JUMPDEST PUSH1 0x60 PUSH0 DUP3 SWAP1 POP DUP1 PUSH20 0xFFFFFFFFFFFFFFFFFFFFFFFFFFFFFFFFFFFFFFFF AND PUSH4 0x340A2A4E PUSH1 0x40 MLOAD DUP2 PUSH4 0xFFFFFFFF AND PUSH1 0xE0 SHL DUP2 MSTORE PUSH1 0x4 ADD PUSH0 PUSH1 0x40 MLOAD DUP1 DUP4 SUB DUP2 PUSH0 DUP8 GAS CALL ISZERO DUP1 ISZERO PUSH2 0x196 JUMPI RETURNDATASIZE PUSH0 DUP1 RETURNDATACOPY RETURNDATASIZE PUSH0 REVERT JUMPDEST POP POP POP POP PUSH1 0x40 MLOAD RETURNDATASIZE PUSH0 DUP3 RETURNDATACOPY RETURNDATASIZE PUSH1 0x1F NOT PUSH1 0x1F DUP3 ADD AND DUP3 ADD DUP1 PUSH1 0x40 MSTORE POP DUP2 ADD SWAP1 PUSH2 0x1BE SWAP2 SWAP1 PUSH2 0x4FD JUMP JUMPDEST SWAP2 POP POP SWAP2 SWAP1 POP JUMP JUMPDEST PUSH0 DUP2 SWAP1 POP SWAP2 SWAP1 POP JUMP JUMPDEST PUSH2 0x1D8 DUP2 PUSH2 0x1C6 JUMP JUMPDEST DUP3 MSTORE POP POP JUMP JUMPDEST PUSH0 PUSH1 0x20 DUP3 ADD SWAP1 POP PUSH2 0x1F1 PUSH0 DUP4 ADD DUP5 PUSH2 0x1CF JUMP JUMPDEST SWAP3 SWAP2 POP POP JUMP JUMPDEST PUSH0 PUSH32 0xFFFFFFFF00000000000000000000000000000000000000000000000000000000 DUP3 AND SWAP1 POP SWAP2 SWAP1 POP JUMP JUMPDEST PUSH2 0x22B DUP2 PUSH2 0x1F7 JUMP JUMPDEST DUP3 MSTORE POP POP JUMP JUMPDEST PUSH0 PUSH1 0x20 DUP3 ADD SWAP1 POP PUSH2 0x244 PUSH0 DUP4 ADD DUP5 PUSH2 0x222 JUMP JUMPDEST SWAP3 SWAP2 POP POP JUMP JUMPDEST PUSH0 PUSH1 0x40 MLOAD SWAP1 POP SWAP1 JUMP JUMPDEST PUSH0 DUP1 REVERT JUMPDEST PUSH0 DUP1 REVERT JUMPDEST PUSH0 PUSH20 0xFFFFFFFFFFFFFFFFFFFFFFFFFFFFFFFFFFFFFFFF DUP3 AND SWAP1 POP SWAP2 SWAP1 POP JUMP JUMPDEST PUSH0 PUSH2 0x284 DUP3 PUSH2 0x25B JUMP JUMPDEST SWAP1 POP SWAP2 SWAP1 POP JUMP JUMPDEST PUSH2 0x294 DUP2 PUSH2 0x27A JUMP JUMPDEST DUP2 EQ PUSH2 0x29E JUMPI PUSH0 DUP1 REVERT JUMPDEST POP JUMP JUMPDEST PUSH0 DUP2 CALLDATALOAD SWAP1 POP PUSH2 0x2AF DUP2 PUSH2 0x28B JUMP JUMPDEST SWAP3 SWAP2 POP POP JUMP JUMPDEST PUSH0 PUSH1 0x20 DUP3 DUP5 SUB SLT ISZERO PUSH2 0x2CA JUMPI PUSH2 0x2C9 PUSH2 0x253 JUMP JUMPDEST JUMPDEST PUSH0 PUSH2 0x2D7 DUP5 DUP3 DUP6 ADD PUSH2 0x2A1 JUMP JUMPDEST SWAP2 POP POP SWAP3 SWAP2 POP POP JUMP JUMPDEST PUSH0 DUP2 MLOAD SWAP1 POP SWAP2 SWAP1 POP JUMP JUMPDEST PUSH0 DUP3 DUP3 MSTORE PUSH1 0x20 DUP3 ADD SWAP1 POP SWAP3 SWAP2 POP POP JUMP JUMPDEST PUSH0 JUMPDEST DUP4 DUP2 LT ISZERO PUSH2 0x317 JUMPI DUP1 DUP3 ADD MLOAD DUP2 DUP5 ADD MSTORE PUSH1 0x20 DUP2 ADD SWAP1 POP PUSH2 0x2FC JUMP JUMPDEST PUSH0 DUP5 DUP5 ADD MSTORE POP POP POP POP JUMP JUMPDEST PUSH0 PUSH1 0x1F NOT PUSH1 0x1F DUP4 ADD AND SWAP1 POP SWAP2 SWAP1 POP JUMP JUMPDEST PUSH0 PUSH2 0x33C DUP3 PUSH2 0x2E0 JUMP JUMPDEST PUSH2 0x346 DUP2 DUP6 PUSH2 0x2EA JUMP JUMPDEST SWAP4 POP PUSH2 0x356 DUP2 DUP6 PUSH1 0x20 DUP7 ADD PUSH2 0x2FA JUMP JUMPDEST PUSH2 0x35F DUP2 PUSH2 0x322 JUMP JUMPDEST DUP5 ADD SWAP2 POP POP SWAP3 SWAP2 POP POP JUMP JUMPDEST PUSH0 PUSH1 0x20 DUP3 ADD SWAP1 POP DUP2 DUP2 SUB PUSH0 DUP4 ADD MSTORE PUSH2 0x382 DUP2 DUP5 PUSH2 0x332 JUMP JUMPDEST SWAP1 POP SWAP3 SWAP2 POP POP JUMP JUMPDEST PUSH2 0x393 DUP2 PUSH2 0x1C6 JUMP JUMPDEST DUP2 EQ PUSH2 0x39D JUMPI PUSH0 DUP1 REVERT JUMPDEST POP JUMP JUMPDEST PUSH0 DUP2 MLOAD SWAP1 POP PUSH2 0x3AE DUP2 PUSH2 0x38A JUMP JUMPDEST SWAP3 SWAP2 POP POP JUMP JUMPDEST PUSH0 PUSH1 0x20 DUP3 DUP5 SUB SLT ISZERO PUSH2 0x3C9 JUMPI PUSH2 0x3C8 PUSH2 0x253 JUMP JUMPDEST JUMPDEST PUSH0 PUSH2 0x3D6 DUP5 DUP3 DUP6 ADD PUSH2 0x3A0 JUMP JUMPDEST SWAP2 POP POP SWAP3 SWAP2 POP POP JUMP JUMPDEST PUSH0 DUP1 REVERT JUMPDEST PUSH0 DUP1 REVERT JUMPDEST PUSH32 0x4E487B7100000000000000000000000000000000000000000000000000000000 PUSH0 MSTORE PUSH1 0x41 PUSH1 0x4 MSTORE PUSH1 0x24 PUSH0 REVERT JUMPDEST PUSH2 0x41D DUP3 PUSH2 0x322 JUMP JUMPDEST DUP2 ADD DUP2 DUP2 LT PUSH8 0xFFFFFFFFFFFFFFFF DUP3 GT OR ISZERO PUSH2 0x43C JUMPI PUSH2 0x43B PUSH2 0x3E7 JUMP JUMPDEST JUMPDEST DUP1 PUSH1 0x40 MSTORE POP POP POP JUMP JUMPDEST PUSH0 PUSH2 0x44E PUSH2 0x24A JUMP JUMPDEST SWAP1 POP PUSH2 0x45A DUP3 DUP3 PUSH2 0x414 JUMP JUMPDEST SWAP2 SWAP1 POP JUMP JUMPDEST PUSH0 PUSH8 0xFFFFFFFFFFFFFFFF DUP3 GT ISZERO PUSH2 0x479 JUMPI PUSH2 0x478 PUSH2 0x3E7 JUMP JUMPDEST JUMPDEST PUSH2 0x482 DUP3 PUSH2 0x322 JUMP JUMPDEST SWAP1 POP PUSH1 0x20 DUP2 ADD SWAP1 POP SWAP2 SWAP1 POP JUMP JUMPDEST PUSH0 PUSH2 0x4A1 PUSH2 0x49C DUP5 PUSH2 0x45F JUMP JUMPDEST PUSH2 0x445 JUMP JUMPDEST SWAP1 POP DUP3 DUP2 MSTORE PUSH1 0x20 DUP2 ADD DUP5 DUP5 DUP5 ADD GT ISZERO PUSH2 0x4BD JUMPI PUSH2 0x4BC PUSH2 0x3E3 JUMP JUMPDEST JUMPDEST PUSH2 0x4C8 DUP5 DUP3 DUP6 PUSH2 0x2FA JUMP JUMPDEST POP SWAP4 SWAP3 POP POP POP JUMP JUMPDEST PUSH0 DUP3 PUSH1 0x1F DUP4 ADD SLT PUSH2 0x4E4 JUMPI PUSH2 0x4E3 PUSH2 0x3DF JUMP JUMPDEST JUMPDEST DUP2 MLOAD PUSH2 0x4F4 DUP5 DUP3 PUSH1 0x20 DUP7 ADD PUSH2 0x48F JUMP JUMPDEST SWAP2 POP POP SWAP3 SWAP2 POP POP JUMP JUMPDEST PUSH0 PUSH1 0x20 DUP3 DUP5 SUB SLT ISZERO PUSH2 0x512 JUMPI PUSH2 0x511 PUSH2 0x253 JUMP JUMPDEST JUMPDEST PUSH0 DUP3 ADD MLOAD PUSH8 0xFFFFFFFFFFFFFFFF DUP2 GT ISZERO PUSH2 0x52F JUMPI PUSH2 0x52E PUSH2 0x257 JUMP JUMPDEST JUMPDEST PUSH2 0x53B DUP5 DUP3 DUP6 ADD PUSH2 0x4D0 JUMP JUMPDEST SWAP2 POP POP SWAP3 SWAP2 POP POP JUMP INVALID LOG2 PUSH5 0x6970667358 0x22 SLT KECCAK256 MULMOD JUMPDEST CREATE 0xD4 0xE5 0xD2 0xA7 0xEF 0x25 SDIV PUSH10 0x4FA68ED12330E718C33F CREATE MOD SUB 0x21 0xB7 BALANCE 0xAC ADD 0xF7 0x4D 0xB8 PUSH5 0x736F6C6343 STOP ADDMOD AND STOP CALLER "
		},
		"gasEstimates": {
			"creation": {
				"codeDepositCost": "280400",
				"executionCost": "316",
				"totalCost": "280716"
			},
			"external": {
				"interfaceID()": "338",
				"test(address)": "infinite",
				"testA()": "infinite"
			}
		},
		"methodIdentifiers": {
			"interfaceID()": "ba19322d",
			"test(address)": "bb29998e",
			"testA()": "71dd626b"
		}
	},
	"abi": [
		{
			"inputs": [],
			"name": "interfaceID",
			"outputs": [
				{
					"internalType": "bytes4",
					"name": "",
					"type": "bytes4"
				}
			],
			"stateMutability": "pure",
			"type": "function"
		},
		{
			"inputs": [
				{
					"internalType": "address",
					"name": "_addr",
					"type": "address"
				}
			],
			"name": "test",
			"outputs": [
				{
					"internalType": "string",
					"name": "",
					"type": "string"
				}
			],
			"stateMutability": "nonpayable",
			"type": "function"
		},
		{
			"inputs": [],
			"name": "testA",
			"outputs": [
				{
					"internalType": "uint256",
					"name": "",
					"type": "uint256"
				}
			],
			"stateMutability": "pure",
			"type": "function"
		}
	]
}